{
  "contractName": "QuestionPaperStorage",
  "abi": [
    {
      "inputs": [],
      "stateMutability": "nonpayable",
      "type": "constructor"
    },
    {
      "anonymous": false,
      "inputs": [
        {
          "indexed": false,
          "internalType": "string",
          "name": "paperId",
          "type": "string"
        },
        {
          "indexed": true,
          "internalType": "address",
          "name": "requester",
          "type": "address"
        },
        {
          "indexed": false,
          "internalType": "string",
          "name": "reason",
          "type": "string"
        }
      ],
      "name": "AccessFailed",
      "type": "event"
    },
    {
      "anonymous": false,
      "inputs": [
        {
          "indexed": false,
          "internalType": "string",
          "name": "paperId",
          "type": "string"
        },
        {
          "indexed": true,
          "internalType": "address",
          "name": "downloader",
          "type": "address"
        }
      ],
      "name": "PaperDownloaded",
      "type": "event"
    },
    {
      "anonymous": false,
      "inputs": [
        {
          "indexed": false,
          "internalType": "string",
          "name": "paperId",
          "type": "string"
        },
        {
          "indexed": true,
          "internalType": "address",
          "name": "faculty",
          "type": "address"
        }
      ],
      "name": "PaperUploaded",
      "type": "event"
    },
    {
      "anonymous": false,
      "inputs": [
        {
          "indexed": true,
          "internalType": "address",
          "name": "user",
          "type": "address"
        }
      ],
      "name": "UserAuthorized",
      "type": "event"
    },
    {
      "anonymous": false,
      "inputs": [
        {
          "indexed": true,
          "internalType": "address",
          "name": "user",
          "type": "address"
        }
      ],
      "name": "UserRevoked",
      "type": "event"
    },
    {
      "inputs": [
        {
          "internalType": "address",
          "name": "",
          "type": "address"
        }
      ],
      "name": "authorizedUsers",
      "outputs": [
        {
          "internalType": "bool",
          "name": "",
          "type": "bool"
        }
      ],
      "stateMutability": "view",
      "type": "function",
      "constant": true
    },
    {
      "inputs": [],
      "name": "owner",
      "outputs": [
        {
          "internalType": "address",
          "name": "",
          "type": "address"
        }
      ],
      "stateMutability": "view",
      "type": "function",
      "constant": true
    },
    {
      "inputs": [
        {
          "internalType": "string",
          "name": "",
          "type": "string"
        }
      ],
      "name": "papers",
      "outputs": [
        {
          "internalType": "string",
          "name": "ipfsHash",
          "type": "string"
        },
        {
          "internalType": "uint256",
          "name": "releaseTime",
          "type": "uint256"
        },
        {
          "internalType": "bytes",
          "name": "aesKey",
          "type": "bytes"
        },
        {
          "internalType": "address",
          "name": "faculty",
          "type": "address"
        },
        {
          "internalType": "bool",
          "name": "isSet",
          "type": "bool"
        }
      ],
      "stateMutability": "view",
      "type": "function",
      "constant": true
    },
    {
      "inputs": [
        {
          "internalType": "address",
          "name": "_user",
          "type": "address"
        }
      ],
      "name": "addAuthorizedUser",
      "outputs": [],
      "stateMutability": "nonpayable",
      "type": "function"
    },
    {
      "inputs": [
        {
          "internalType": "address",
          "name": "_user",
          "type": "address"
        }
      ],
      "name": "revokeUser",
      "outputs": [],
      "stateMutability": "nonpayable",
      "type": "function"
    },
    {
      "inputs": [
        {
          "internalType": "string",
          "name": "_paperId",
          "type": "string"
        },
        {
          "internalType": "string",
          "name": "_ipfsHash",
          "type": "string"
        },
        {
          "internalType": "uint256",
          "name": "_releaseTime",
          "type": "uint256"
        },
        {
          "internalType": "bytes",
          "name": "_aesKey",
          "type": "bytes"
        }
      ],
      "name": "uploadQuestionPaper",
      "outputs": [],
      "stateMutability": "nonpayable",
      "type": "function"
    },
    {
      "inputs": [
        {
          "internalType": "string",
          "name": "_paperId",
          "type": "string"
        }
      ],
      "name": "recordAccess",
      "outputs": [],
      "stateMutability": "nonpayable",
      "type": "function"
    },
    {
      "inputs": [
        {
          "internalType": "string",
          "name": "_paperId",
          "type": "string"
        }
      ],
      "name": "getPaperDetails",
      "outputs": [
        {
          "internalType": "string",
          "name": "",
          "type": "string"
        },
        {
          "internalType": "bytes",
          "name": "",
          "type": "bytes"
        }
      ],
      "stateMutability": "view",
      "type": "function",
      "constant": true
    }
  ],
  "bytecode": "0x608060405234801561001057600080fd5b5033600260006101000a81548173ffffffffffffffffffffffffffffffffffffffff021916908373ffffffffffffffffffffffffffffffffffffffff16021790555060018060003373ffffffffffffffffffffffffffffffffffffffff1673ffffffffffffffffffffffffffffffffffffffff16815260200190815260200160002060006101000a81548160ff021916908315150217905550611a52806100b86000396000f3fe608060405234801561001057600080fd5b50600436106100885760003560e01c80638da5cb5b1161005b5780638da5cb5b1461013e578063d22369281461015c578063dee8c24514610178578063ef097fc41461019457610088565b8063177d2a741461008d5780631828983a146100a957806369071c70146100d957806374883bf31461010d575b600080fd5b6100a760048036038101906100a29190610d6a565b6101b0565b005b6100c360048036038101906100be9190610d6a565b6102dd565b6040516100d09190610db2565b60405180910390f35b6100f360048036038101906100ee9190610f13565b6102fd565b604051610104959493929190611058565b60405180910390f35b61012760048036038101906101229190610f13565b610486565b6040516101359291906110b9565b60405180910390f35b61014661074a565b60405161015391906110f0565b60405180910390f35b61017660048036038101906101719190610f13565b610770565b005b610192600480360381019061018d91906111d8565b610937565b005b6101ae60048036038101906101a99190610d6a565b610bca565b005b600260009054906101000a900473ffffffffffffffffffffffffffffffffffffffff1673ffffffffffffffffffffffffffffffffffffffff163373ffffffffffffffffffffffffffffffffffffffff1614610240576040517f08c379a000000000000000000000000000000000000000000000000000000000815260040161023790611305565b60405180910390fd5b60018060008373ffffffffffffffffffffffffffffffffffffffff1673ffffffffffffffffffffffffffffffffffffffff16815260200190815260200160002060006101000a81548160ff0219169083151502179055508073ffffffffffffffffffffffffffffffffffffffff167fb0be505cf6e26533f3066ac7722c3f8a5e8a123f43187c7832d333c49603b14660405160405180910390a250565b60016020528060005260406000206000915054906101000a900460ff1681565b60008180516020810182018051848252602083016020850120818352809550505050505060009150905080600001805461033690611354565b80601f016020809104026020016040519081016040528092919081815260200182805461036290611354565b80156103af5780601f10610384576101008083540402835291602001916103af565b820191906000526020600020905b81548152906001019060200180831161039257829003601f168201915b5050505050908060010154908060020180546103ca90611354565b80601f01602080910402602001604051908101604052809291908181526020018280546103f690611354565b80156104435780601f1061041857610100808354040283529160200191610443565b820191906000526020600020905b81548152906001019060200180831161042657829003601f168201915b5050505050908060030160009054906101000a900473ffffffffffffffffffffffffffffffffffffffff16908060030160149054906101000a900460ff16905085565b606080600160003373ffffffffffffffffffffffffffffffffffffffff1673ffffffffffffffffffffffffffffffffffffffff16815260200190815260200160002060009054906101000a900460ff16610515576040517f08c379a000000000000000000000000000000000000000000000000000000000815260040161050c906113d1565b60405180910390fd5b600083604051610525919061142d565b908152602001604051809103902060030160149054906101000a900460ff16610583576040517f08c379a000000000000000000000000000000000000000000000000000000000815260040161057a90611490565b60405180910390fd5b600083604051610593919061142d565b9081526020016040518091039020600101544210156105e7576040517f08c379a00000000000000000000000000000000000000000000000000000000081526004016105de906114fc565b60405180910390fd5b6000836040516105f7919061142d565b9081526020016040518091039020600001600084604051610618919061142d565b908152602001604051809103902060020181805461063590611354565b80601f016020809104026020016040519081016040528092919081815260200182805461066190611354565b80156106ae5780601f10610683576101008083540402835291602001916106ae565b820191906000526020600020905b81548152906001019060200180831161069157829003601f168201915b505050505091508080546106c190611354565b80601f01602080910402602001604051908101604052809291908181526020018280546106ed90611354565b801561073a5780601f1061070f5761010080835404028352916020019161073a565b820191906000526020600020905b81548152906001019060200180831161071d57829003601f168201915b5050505050905091509150915091565b600260009054906101000a900473ffffffffffffffffffffffffffffffffffffffff1681565b600160003373ffffffffffffffffffffffffffffffffffffffff1673ffffffffffffffffffffffffffffffffffffffff16815260200190815260200160002060009054906101000a900460ff166107fc576040517f08c379a00000000000000000000000000000000000000000000000000000000081526004016107f3906113d1565b60405180910390fd5b60008160405161080c919061142d565b908152602001604051809103902060030160149054906101000a900460ff1661086a576040517f08c379a000000000000000000000000000000000000000000000000000000000815260040161086190611490565b60405180910390fd5b60008160405161087a919061142d565b90815260200160405180910390206001015442106108e5573373ffffffffffffffffffffffffffffffffffffffff167fdb6576d02d17403f711cb2459f36d158a53b7bc982658650b86ff8d0cf0f4b5b826040516108d8919061151c565b60405180910390a2610934565b3373ffffffffffffffffffffffffffffffffffffffff167f8b09089a35b73f14197856f9d0b1a0e35bca5e89dfb7fee7974c483cc05fcccd8260405161092b919061153e565b60405180910390a25b50565b600260009054906101000a900473ffffffffffffffffffffffffffffffffffffffff1673ffffffffffffffffffffffffffffffffffffffff163373ffffffffffffffffffffffffffffffffffffffff16146109c7576040517f08c379a00000000000000000000000000000000000000000000000000000000081526004016109be90611305565b60405180910390fd5b6000846040516109d7919061142d565b908152602001604051809103902060030160149054906101000a900460ff1615610a36576040517f08c379a0000000000000000000000000000000000000000000000000000000008152600401610a2d906115bf565b60405180910390fd5b428211610a78576040517f08c379a0000000000000000000000000000000000000000000000000000000008152600401610a6f90611651565b60405180910390fd5b6040518060a001604052808481526020018381526020018281526020013373ffffffffffffffffffffffffffffffffffffffff16815260200160011515815250600085604051610ac8919061142d565b90815260200160405180910390206000820151816000019081610aeb919061181d565b50602082015181600101556040820151816002019081610b0b919061194a565b5060608201518160030160006101000a81548173ffffffffffffffffffffffffffffffffffffffff021916908373ffffffffffffffffffffffffffffffffffffffff16021790555060808201518160030160146101000a81548160ff0219169083151502179055509050503373ffffffffffffffffffffffffffffffffffffffff167f155ea6fc619504af136661f75e513ac7badae732e35f2754ffff8923014a7e0385604051610bbc919061151c565b60405180910390a250505050565b600260009054906101000a900473ffffffffffffffffffffffffffffffffffffffff1673ffffffffffffffffffffffffffffffffffffffff163373ffffffffffffffffffffffffffffffffffffffff1614610c5a576040517f08c379a0000000000000000000000000000000000000000000000000000000008152600401610c5190611305565b60405180910390fd5b6000600160008373ffffffffffffffffffffffffffffffffffffffff1673ffffffffffffffffffffffffffffffffffffffff16815260200190815260200160002060006101000a81548160ff0219169083151502179055508073ffffffffffffffffffffffffffffffffffffffff167fb43ac7bf01d16ebcb8c868a4c03fecb1f6984ea4fa1a52c116ef282b8dbb17c560405160405180910390a250565b6000604051905090565b600080fd5b600080fd5b600073ffffffffffffffffffffffffffffffffffffffff82169050919050565b6000610d3782610d0c565b9050919050565b610d4781610d2c565b8114610d5257600080fd5b50565b600081359050610d6481610d3e565b92915050565b600060208284031215610d8057610d7f610d02565b5b6000610d8e84828501610d55565b91505092915050565b60008115159050919050565b610dac81610d97565b82525050565b6000602082019050610dc76000830184610da3565b92915050565b600080fd5b600080fd5b6000601f19601f8301169050919050565b7f4e487b7100000000000000000000000000000000000000000000000000000000600052604160045260246000fd5b610e2082610dd7565b810181811067ffffffffffffffff82111715610e3f57610e3e610de8565b5b80604052505050565b6000610e52610cf8565b9050610e5e8282610e17565b919050565b600067ffffffffffffffff821115610e7e57610e7d610de8565b5b610e8782610dd7565b9050602081019050919050565b82818337600083830152505050565b6000610eb6610eb184610e63565b610e48565b905082815260208101848484011115610ed257610ed1610dd2565b5b610edd848285610e94565b509392505050565b600082601f830112610efa57610ef9610dcd565b5b8135610f0a848260208601610ea3565b91505092915050565b600060208284031215610f2957610f28610d02565b5b600082013567ffffffffffffffff811115610f4757610f46610d07565b5b610f5384828501610ee5565b91505092915050565b600081519050919050565b600082825260208201905092915050565b60005b83811015610f96578082015181840152602081019050610f7b565b60008484015250505050565b6000610fad82610f5c565b610fb78185610f67565b9350610fc7818560208601610f78565b610fd081610dd7565b840191505092915050565b6000819050919050565b610fee81610fdb565b82525050565b600081519050919050565b600082825260208201905092915050565b600061101b82610ff4565b6110258185610fff565b9350611035818560208601610f78565b61103e81610dd7565b840191505092915050565b61105281610d2c565b82525050565b600060a08201905081810360008301526110728188610fa2565b90506110816020830187610fe5565b81810360408301526110938186611010565b90506110a26060830185611049565b6110af6080830184610da3565b9695505050505050565b600060408201905081810360008301526110d38185610fa2565b905081810360208301526110e78184611010565b90509392505050565b60006020820190506111056000830184611049565b92915050565b61111481610fdb565b811461111f57600080fd5b50565b6000813590506111318161110b565b92915050565b600067ffffffffffffffff82111561115257611151610de8565b5b61115b82610dd7565b9050602081019050919050565b600061117b61117684611137565b610e48565b90508281526020810184848401111561119757611196610dd2565b5b6111a2848285610e94565b509392505050565b600082601f8301126111bf576111be610dcd565b5b81356111cf848260208601611168565b91505092915050565b600080600080608085870312156111f2576111f1610d02565b5b600085013567ffffffffffffffff8111156112105761120f610d07565b5b61121c87828801610ee5565b945050602085013567ffffffffffffffff81111561123d5761123c610d07565b5b61124987828801610ee5565b935050604061125a87828801611122565b925050606085013567ffffffffffffffff81111561127b5761127a610d07565b5b611287878288016111aa565b91505092959194509250565b7f4f6e6c79206f776e65722063616e20706572666f726d2074686973206163746960008201527f6f6e2e0000000000000000000000000000000000000000000000000000000000602082015250565b60006112ef602383610f67565b91506112fa82611293565b604082019050919050565b6000602082019050818103600083015261131e816112e2565b9050919050565b7f4e487b7100000000000000000000000000000000000000000000000000000000600052602260045260246000fd5b6000600282049050600182168061136c57607f821691505b60208210810361137f5761137e611325565b5b50919050565b7f4e6f7420616e20617574686f72697a656420757365722e000000000000000000600082015250565b60006113bb601783610f67565b91506113c682611385565b602082019050919050565b600060208201905081810360008301526113ea816113ae565b9050919050565b600081905092915050565b600061140782610f5c565b61141181856113f1565b9350611421818560208601610f78565b80840191505092915050565b600061143982846113fc565b915081905092915050565b7f5061706572206e6f7420666f756e642e00000000000000000000000000000000600082015250565b600061147a601083610f67565b915061148582611444565b602082019050919050565b600060208201905081810360008301526114a98161146d565b9050919050565b7f5061706572206e6f74207965742072656c656173656400000000000000000000600082015250565b60006114e6601683610f67565b91506114f1826114b0565b602082019050919050565b60006020820190508181036000830152611515816114d9565b9050919050565b600060208201905081810360008301526115368184610fa2565b905092915050565b600060408201905081810360008301526115588184610fa2565b9050818103602083015261156b816114d9565b905092915050565b7f506170657220494420616c7265616479206578697374732e0000000000000000600082015250565b60006115a9601883610f67565b91506115b482611573565b602082019050919050565b600060208201905081810360008301526115d88161159c565b9050919050565b7f52656c656173652074696d65206d75737420626520696e20746865206675747560008201527f7265000000000000000000000000000000000000000000000000000000000000602082015250565b600061163b602283610f67565b9150611646826115df565b604082019050919050565b6000602082019050818103600083015261166a8161162e565b9050919050565b60008190508160005260206000209050919050565b60006020601f8301049050919050565b600082821b905092915050565b6000600883026116d37fffffffffffffffffffffffffffffffffffffffffffffffffffffffffffffffff82611696565b6116dd8683611696565b95508019841693508086168417925050509392505050565b6000819050919050565b600061171a61171561171084610fdb565b6116f5565b610fdb565b9050919050565b6000819050919050565b611734836116ff565b61174861174082611721565b8484546116a3565b825550505050565b600090565b61175d611750565b61176881848461172b565b505050565b5b8181101561178c57611781600082611755565b60018101905061176e565b5050565b601f8211156117d1576117a281611671565b6117ab84611686565b810160208510156117ba578190505b6117ce6117c685611686565b83018261176d565b50505b505050565b600082821c905092915050565b60006117f4600019846008026117d6565b1980831691505092915050565b600061180d83836117e3565b9150826002028217905092915050565b61182682610f5c565b67ffffffffffffffff81111561183f5761183e610de8565b5b6118498254611354565b611854828285611790565b600060209050601f8311600181146118875760008415611875578287015190505b61187f8582611801565b8655506118e7565b601f19841661189586611671565b60005b828110156118bd57848901518255600182019150602085019450602081019050611898565b868310156118da57848901516118d6601f8916826117e3565b8355505b6001600288020188555050505b505050505050565b60008190508160005260206000209050919050565b601f82111561194557611916816118ef565b61191f84611686565b8101602085101561192e578190505b61194261193a85611686565b83018261176d565b50505b505050565b61195382610ff4565b67ffffffffffffffff81111561196c5761196b610de8565b5b6119768254611354565b611981828285611904565b600060209050601f8311600181146119b457600084156119a2578287015190505b6119ac8582611801565b865550611a14565b601f1984166119c2866118ef565b60005b828110156119ea578489015182556001820191506020850194506020810190506119c5565b86831015611a075784890151611a03601f8916826117e3565b8355505b6001600288020188555050505b50505050505056fea26469706673582212202e20461f3b06b1a9fa8354abef3b332c6151aef16b5b499f017f9232b40bb10864736f6c63430008130033",
  "immutableReferences": {},
  "source": "// SPDX-License-Identifier: MIT\r\npragma solidity ^0.8.0;\r\n\r\ncontract QuestionPaperStorage {\r\n    struct Paper {\r\n        string ipfsHash;\r\n        uint256 releaseTime;\r\n        bytes aesKey;\r\n        address faculty;\r\n        bool isSet;\r\n    }\r\n\r\n    mapping(string => Paper) public papers;\r\n    mapping(address => bool) public authorizedUsers;\r\n    address public owner;\r\n\r\n    event PaperUploaded(string paperId, address indexed faculty);\r\n    event PaperDownloaded(string paperId, address indexed downloader);\r\n    event AccessFailed(\r\n        string paperId,\r\n        address indexed requester,\r\n        string reason\r\n    );\r\n    event UserAuthorized(address indexed user);\r\n    event UserRevoked(address indexed user);\r\n\r\n    constructor() {\r\n        owner = msg.sender;\r\n        authorizedUsers[msg.sender] = true; \r\n    }\r\n\r\n    modifier onlyOwner() {\r\n        require(msg.sender == owner, \"Only owner can perform this action.\");\r\n        _;\r\n    }\r\n\r\n    modifier onlyAuthorized() {\r\n        require(authorizedUsers[msg.sender], \"Not an authorized user.\");\r\n        _;\r\n    }\r\n\r\n    // Add authorized wallet address (student/faculty)\r\n    function addAuthorizedUser(address _user) public onlyOwner {\r\n        authorizedUsers[_user] = true;\r\n        emit UserAuthorized(_user);\r\n    }\r\n\r\n    // Remove access for a wallet\r\n    function revokeUser(address _user) public onlyOwner {\r\n        authorizedUsers[_user] = false;\r\n        emit UserRevoked(_user);\r\n    }\r\n\r\n    // Upload paper (only owner/faculty)\r\n    function uploadQuestionPaper(\r\n        string memory _paperId,\r\n        string memory _ipfsHash,\r\n        uint256 _releaseTime,\r\n        bytes memory _aesKey\r\n    ) public onlyOwner {\r\n        require(!papers[_paperId].isSet, \"Paper ID already exists.\");\r\n        require(\r\n            _releaseTime > block.timestamp,\r\n            \"Release time must be in the future\"\r\n        );\r\n\r\n        papers[_paperId] = Paper({\r\n            ipfsHash: _ipfsHash,\r\n            releaseTime: _releaseTime,\r\n            aesKey: _aesKey,\r\n            faculty: msg.sender,\r\n            isSet: true\r\n        });\r\n\r\n        emit PaperUploaded(_paperId, msg.sender);\r\n    }\r\n\r\n    // Record access attempts\r\n    function recordAccess(string memory _paperId) public onlyAuthorized {\r\n        require(papers[_paperId].isSet, \"Paper not found.\");\r\n\r\n        if (block.timestamp >= papers[_paperId].releaseTime) {\r\n            emit PaperDownloaded(_paperId, msg.sender);\r\n        } else {\r\n            emit AccessFailed(_paperId, msg.sender, \"Paper not yet released\");\r\n        }\r\n    }\r\n\r\n    // Get paper (authorized + after release)\r\n    function getPaperDetails(\r\n        string memory _paperId\r\n    ) public view onlyAuthorized returns (string memory, bytes memory) {\r\n        require(papers[_paperId].isSet, \"Paper not found.\");\r\n        require(\r\n            block.timestamp >= papers[_paperId].releaseTime,\r\n            \"Paper not yet released\"\r\n        );\r\n        return (papers[_paperId].ipfsHash, papers[_paperId].aesKey);\r\n    }\r\n}\r\n",
  "sourcePath": "C:\\Users\\itsme\\Documents\\Semester-5\\BL_new codes\\codes\\contracts\\questionpaperstorage.sol",
  "compiler": {
    "name": "solc",
    "version": "0.8.19+commit.7dd6d404.Emscripten.clang"
  },
  "schemaVersion": "3.4.16",
  "updatedAt": "2025-11-06T07:31:42.302Z",
  "networkType": "ethereum",
  "devdoc": {
    "kind": "dev",
    "methods": {},
    "version": 1
  },
  "userdoc": {
    "kind": "user",
    "methods": {},
    "version": 1
  }
}